{
  "contractName": "ConsultingToken",
  "abi": [
    {
      "anonymous": false,
      "inputs": [
        {
          "indexed": true,
          "internalType": "address",
          "name": "owner",
          "type": "address"
        },
        {
          "indexed": true,
          "internalType": "address",
          "name": "approved",
          "type": "address"
        },
        {
          "indexed": true,
          "internalType": "uint256",
          "name": "tokenId",
          "type": "uint256"
        }
      ],
      "name": "Approval",
      "type": "event"
    },
    {
      "anonymous": false,
      "inputs": [
        {
          "indexed": true,
          "internalType": "address",
          "name": "owner",
          "type": "address"
        },
        {
          "indexed": true,
          "internalType": "address",
          "name": "operator",
          "type": "address"
        },
        {
          "indexed": false,
          "internalType": "bool",
          "name": "approved",
          "type": "bool"
        }
      ],
      "name": "ApprovalForAll",
      "type": "event"
    },
    {
      "anonymous": false,
      "inputs": [
        {
          "indexed": true,
          "internalType": "address",
          "name": "from",
          "type": "address"
        },
        {
          "indexed": true,
          "internalType": "address",
          "name": "to",
          "type": "address"
        },
        {
          "indexed": true,
          "internalType": "uint256",
          "name": "tokenId",
          "type": "uint256"
        }
      ],
      "name": "Transfer",
      "type": "event"
    },
    {
      "inputs": [
        {
          "internalType": "address",
          "name": "to",
          "type": "address"
        },
        {
          "internalType": "uint256",
          "name": "tokenId",
          "type": "uint256"
        }
      ],
      "name": "approve",
      "outputs": [],
      "stateMutability": "nonpayable",
      "type": "function"
    },
    {
      "inputs": [
        {
          "internalType": "address",
          "name": "owner",
          "type": "address"
        }
      ],
      "name": "balanceOf",
      "outputs": [
        {
          "internalType": "uint256",
          "name": "",
          "type": "uint256"
        }
      ],
      "stateMutability": "view",
      "type": "function",
      "constant": true
    },
    {
      "inputs": [],
      "name": "baseURI",
      "outputs": [
        {
          "internalType": "string",
          "name": "",
          "type": "string"
        }
      ],
      "stateMutability": "view",
      "type": "function",
      "constant": true
    },
    {
      "inputs": [
        {
          "internalType": "uint256",
          "name": "tokenId",
          "type": "uint256"
        }
      ],
      "name": "getApproved",
      "outputs": [
        {
          "internalType": "address",
          "name": "",
          "type": "address"
        }
      ],
      "stateMutability": "view",
      "type": "function",
      "constant": true
    },
    {
      "inputs": [
        {
          "internalType": "address",
          "name": "owner",
          "type": "address"
        },
        {
          "internalType": "address",
          "name": "operator",
          "type": "address"
        }
      ],
      "name": "isApprovedForAll",
      "outputs": [
        {
          "internalType": "bool",
          "name": "",
          "type": "bool"
        }
      ],
      "stateMutability": "view",
      "type": "function",
      "constant": true
    },
    {
      "inputs": [],
      "name": "name",
      "outputs": [
        {
          "internalType": "string",
          "name": "",
          "type": "string"
        }
      ],
      "stateMutability": "view",
      "type": "function",
      "constant": true
    },
    {
      "inputs": [
        {
          "internalType": "uint256",
          "name": "tokenId",
          "type": "uint256"
        }
      ],
      "name": "ownerOf",
      "outputs": [
        {
          "internalType": "address",
          "name": "",
          "type": "address"
        }
      ],
      "stateMutability": "view",
      "type": "function",
      "constant": true
    },
    {
      "inputs": [
        {
          "internalType": "address",
          "name": "from",
          "type": "address"
        },
        {
          "internalType": "address",
          "name": "to",
          "type": "address"
        },
        {
          "internalType": "uint256",
          "name": "tokenId",
          "type": "uint256"
        }
      ],
      "name": "safeTransferFrom",
      "outputs": [],
      "stateMutability": "nonpayable",
      "type": "function"
    },
    {
      "inputs": [
        {
          "internalType": "address",
          "name": "from",
          "type": "address"
        },
        {
          "internalType": "address",
          "name": "to",
          "type": "address"
        },
        {
          "internalType": "uint256",
          "name": "tokenId",
          "type": "uint256"
        },
        {
          "internalType": "bytes",
          "name": "_data",
          "type": "bytes"
        }
      ],
      "name": "safeTransferFrom",
      "outputs": [],
      "stateMutability": "nonpayable",
      "type": "function"
    },
    {
      "inputs": [
        {
          "internalType": "address",
          "name": "operator",
          "type": "address"
        },
        {
          "internalType": "bool",
          "name": "approved",
          "type": "bool"
        }
      ],
      "name": "setApprovalForAll",
      "outputs": [],
      "stateMutability": "nonpayable",
      "type": "function"
    },
    {
      "inputs": [
        {
          "internalType": "bytes4",
          "name": "interfaceId",
          "type": "bytes4"
        }
      ],
      "name": "supportsInterface",
      "outputs": [
        {
          "internalType": "bool",
          "name": "",
          "type": "bool"
        }
      ],
      "stateMutability": "view",
      "type": "function",
      "constant": true
    },
    {
      "inputs": [],
      "name": "symbol",
      "outputs": [
        {
          "internalType": "string",
          "name": "",
          "type": "string"
        }
      ],
      "stateMutability": "view",
      "type": "function",
      "constant": true
    },
    {
      "inputs": [],
      "name": "time",
      "outputs": [
        {
          "internalType": "uint256",
          "name": "",
          "type": "uint256"
        }
      ],
      "stateMutability": "view",
      "type": "function",
      "constant": true
    },
    {
      "inputs": [
        {
          "internalType": "uint256",
          "name": "index",
          "type": "uint256"
        }
      ],
      "name": "tokenByIndex",
      "outputs": [
        {
          "internalType": "uint256",
          "name": "",
          "type": "uint256"
        }
      ],
      "stateMutability": "view",
      "type": "function",
      "constant": true
    },
    {
      "inputs": [
        {
          "internalType": "address",
          "name": "owner",
          "type": "address"
        },
        {
          "internalType": "uint256",
          "name": "index",
          "type": "uint256"
        }
      ],
      "name": "tokenOfOwnerByIndex",
      "outputs": [
        {
          "internalType": "uint256",
          "name": "",
          "type": "uint256"
        }
      ],
      "stateMutability": "view",
      "type": "function",
      "constant": true
    },
    {
      "inputs": [
        {
          "internalType": "uint256",
          "name": "tokenId",
          "type": "uint256"
        }
      ],
      "name": "tokenURI",
      "outputs": [
        {
          "internalType": "string",
          "name": "",
          "type": "string"
        }
      ],
      "stateMutability": "view",
      "type": "function",
      "constant": true
    },
    {
      "inputs": [
        {
          "internalType": "uint256",
          "name": "",
          "type": "uint256"
        }
      ],
      "name": "tokens",
      "outputs": [
        {
          "internalType": "uint256",
          "name": "id",
          "type": "uint256"
        },
        {
          "internalType": "string",
          "name": "topic",
          "type": "string"
        },
        {
          "internalType": "uint256",
          "name": "price",
          "type": "uint256"
        },
        {
          "internalType": "uint256",
          "name": "startTime",
          "type": "uint256"
        },
        {
          "internalType": "uint256",
          "name": "endTime",
          "type": "uint256"
        },
        {
          "internalType": "string",
          "name": "hostName",
          "type": "string"
        },
        {
          "internalType": "bool",
          "name": "hostCheckedIn",
          "type": "bool"
        },
        {
          "internalType": "enum ConsultingToken.DeliveredStatus",
          "name": "status",
          "type": "uint8"
        },
        {
          "internalType": "address payable",
          "name": "host",
          "type": "address"
        },
        {
          "internalType": "address payable",
          "name": "owner",
          "type": "address"
        }
      ],
      "stateMutability": "view",
      "type": "function",
      "constant": true
    },
    {
      "inputs": [],
      "name": "totalSupply",
      "outputs": [
        {
          "internalType": "uint256",
          "name": "",
          "type": "uint256"
        }
      ],
      "stateMutability": "view",
      "type": "function",
      "constant": true
    },
    {
      "inputs": [
        {
          "internalType": "address",
          "name": "from",
          "type": "address"
        },
        {
          "internalType": "address",
          "name": "to",
          "type": "address"
        },
        {
          "internalType": "uint256",
          "name": "tokenId",
          "type": "uint256"
        }
      ],
      "name": "transferFrom",
      "outputs": [],
      "stateMutability": "nonpayable",
      "type": "function"
    },
    {
      "inputs": [
        {
          "internalType": "string",
          "name": "_topic",
          "type": "string"
        },
        {
          "internalType": "uint256",
          "name": "_price",
          "type": "uint256"
        },
        {
          "internalType": "uint256",
          "name": "_startTime",
          "type": "uint256"
        },
        {
          "internalType": "uint256",
          "name": "_endTime",
          "type": "uint256"
        },
        {
          "internalType": "string",
          "name": "_hostName",
          "type": "string"
        }
      ],
      "name": "createConsultingService",
      "outputs": [],
      "stateMutability": "nonpayable",
      "type": "function"
    },
    {
      "inputs": [],
      "name": "totalConsultingServices",
      "outputs": [
        {
          "internalType": "uint256",
          "name": "",
          "type": "uint256"
        }
      ],
      "stateMutability": "view",
      "type": "function",
      "constant": true
    },
    {
      "inputs": [
        {
          "internalType": "uint256",
          "name": "_tokenId",
          "type": "uint256"
        }
      ],
      "name": "ownerOfToken",
      "outputs": [
        {
          "internalType": "address",
          "name": "",
          "type": "address"
        }
      ],
      "stateMutability": "view",
      "type": "function",
      "constant": true
    },
    {
      "inputs": [
        {
          "internalType": "address",
          "name": "_owner",
          "type": "address"
        }
      ],
      "name": "balanceOfAddress",
      "outputs": [
        {
          "internalType": "uint256",
          "name": "",
          "type": "uint256"
        }
      ],
      "stateMutability": "view",
      "type": "function",
      "constant": true
    },
    {
      "inputs": [
        {
          "internalType": "address",
          "name": "_attendee",
          "type": "address"
        },
        {
          "internalType": "uint256",
          "name": "_tokenId",
          "type": "uint256"
        }
      ],
      "name": "approveTransferToken",
      "outputs": [],
      "stateMutability": "nonpayable",
      "type": "function"
    },
    {
      "inputs": [
        {
          "internalType": "address",
          "name": "_attendee",
          "type": "address"
        }
      ],
      "name": "approvalTransferTokenForAll",
      "outputs": [],
      "stateMutability": "nonpayable",
      "type": "function"
    },
    {
      "inputs": [
        {
          "internalType": "uint256",
          "name": "_tokenId",
          "type": "uint256"
        }
      ],
      "name": "buyConsultingService",
      "outputs": [],
      "stateMutability": "payable",
      "type": "function",
      "payable": true
    },
    {
      "inputs": [
        {
          "internalType": "uint256",
          "name": "_tokenId",
          "type": "uint256"
        },
        {
          "internalType": "uint256",
          "name": "_price",
          "type": "uint256"
        }
      ],
      "name": "resellConsultingService",
      "outputs": [],
      "stateMutability": "payable",
      "type": "function",
      "payable": true
    },
    {
      "inputs": [
        {
          "internalType": "uint256",
          "name": "_tokenId",
          "type": "uint256"
        }
      ],
      "name": "releaseStatus",
      "outputs": [],
      "stateMutability": "nonpayable",
      "type": "function"
    }
  ],
  "bytecode": "0x608060405242600a553480156200001557600080fd5b506040518060400160405280600f81526020017f436f6e73756c74696e67546f6b656e00000000000000000000000000000000008152506040518060400160405280600381526020017f434e5300000000000000000000000000000000000000000000000000000000008152506200009a6301ffc9a760e01b6200011c60201b60201c565b8160069080519060200190620000b292919062000225565b508060079080519060200190620000cb92919062000225565b50620000e46380ac58cd60e01b6200011c60201b60201c565b620000fc635b5e139f60e01b6200011c60201b60201c565b6200011463780e9d6360e01b6200011c60201b60201c565b5050620002cb565b63ffffffff60e01b817bffffffffffffffffffffffffffffffffffffffffffffffffffffffff19161415620001b9576040517f08c379a000000000000000000000000000000000000000000000000000000000815260040180806020018281038252601c8152602001807f4552433136353a20696e76616c696420696e746572666163652069640000000081525060200191505060405180910390fd5b6001600080837bffffffffffffffffffffffffffffffffffffffffffffffffffffffff19167bffffffffffffffffffffffffffffffffffffffffffffffffffffffff1916815260200190815260200160002060006101000a81548160ff02191690831515021790555050565b828054600181600116156101000203166002900490600052602060002090601f016020900481019282601f106200026857805160ff191683800117855562000299565b8280016001018555821562000299579182015b82811115620002985782518255916020019190600101906200027b565b5b509050620002a89190620002ac565b5090565b5b80821115620002c7576000816000905550600101620002ad565b5090565b615b3580620002db6000396000f3fe6080604052600436106101b75760003560e01c80635211cd73116100ec578063ab220f841161008a578063c87b56dd11610064578063c87b56dd14610c7a578063dff5dcd814610d2e578063e985e9c514610eab578063ea2d549014610f32576101b7565b8063ab220f8414610ab2578063b88d4fde14610b03578063c57ac5d614610c15576101b7565b806370a08231116100c657806370a08231146108fb57806386212b8f1461096057806395d89b41146109c5578063a22cb46514610a55576101b7565b80635211cd73146107ab5780636352211e146108065780636c0360eb1461086b576101b7565b80632329eb05116101595780632f745c59116101335780632f745c59146104e157806342842e0e146105505780634f64b2be146105cb5780634f6ccce71461075c576101b7565b80632329eb051461040057806323b872dd1461042b5780632ecca2b4146104a6576101b7565b8063095ea7b311610195578063095ea7b3146103215780631665be951461037c57806316ada547146103aa57806318160ddd146103d5576101b7565b806301ffc9a7146101bc57806306fdde031461022c578063081812fc146102bc575b600080fd5b3480156101c857600080fd5b50610214600480360360208110156101df57600080fd5b8101908080357bffffffffffffffffffffffffffffffffffffffffffffffffffffffff19169060200190929190505050610f6a565b60405180821515815260200191505060405180910390f35b34801561023857600080fd5b50610241610fd1565b6040518080602001828103825283818151815260200191508051906020019080838360005b83811015610281578082015181840152602081019050610266565b50505050905090810190601f1680156102ae5780820380516001836020036101000a031916815260200191505b509250505060405180910390f35b3480156102c857600080fd5b506102f5600480360360208110156102df57600080fd5b8101908080359060200190929190505050611073565b604051808273ffffffffffffffffffffffffffffffffffffffff16815260200191505060405180910390f35b34801561032d57600080fd5b5061037a6004803603604081101561034457600080fd5b81019080803573ffffffffffffffffffffffffffffffffffffffff1690602001909291908035906020019092919050505061110e565b005b6103a86004803603602081101561039257600080fd5b8101908080359060200190929190505050611252565b005b3480156103b657600080fd5b506103bf611bcb565b6040518082815260200191505060405180910390f35b3480156103e157600080fd5b506103ea611bd1565b6040518082815260200191505060405180910390f35b34801561040c57600080fd5b50610415611be2565b6040518082815260200191505060405180910390f35b34801561043757600080fd5b506104a46004803603606081101561044e57600080fd5b81019080803573ffffffffffffffffffffffffffffffffffffffff169060200190929190803573ffffffffffffffffffffffffffffffffffffffff16906020019092919080359060200190929190505050611bf1565b005b3480156104b257600080fd5b506104df600480360360208110156104c957600080fd5b8101908080359060200190929190505050611c67565b005b3480156104ed57600080fd5b5061053a6004803603604081101561050457600080fd5b81019080803573ffffffffffffffffffffffffffffffffffffffff169060200190929190803590602001909291905050506123e5565b6040518082815260200191505060405180910390f35b34801561055c57600080fd5b506105c96004803603606081101561057357600080fd5b81019080803573ffffffffffffffffffffffffffffffffffffffff169060200190929190803573ffffffffffffffffffffffffffffffffffffffff16906020019092919080359060200190929190505050612440565b005b3480156105d757600080fd5b50610604600480360360208110156105ee57600080fd5b8101908080359060200190929190505050612460565b604051808b8152602001806020018a815260200189815260200188815260200180602001871515815260200186600281111561063c57fe5b81526020018573ffffffffffffffffffffffffffffffffffffffff1681526020018473ffffffffffffffffffffffffffffffffffffffff16815260200183810383528c818151815260200191508051906020019080838360005b838110156106b1578082015181840152602081019050610696565b50505050905090810190601f1680156106de5780820380516001836020036101000a031916815260200191505b50838103825288818151815260200191508051906020019080838360005b838110156107175780820151818401526020810190506106fc565b50505050905090810190601f1680156107445780820380516001836020036101000a031916815260200191505b509c5050505050505050505050505060405180910390f35b34801561076857600080fd5b506107956004803603602081101561077f57600080fd5b810190808035906020019092919050505061263e565b6040518082815260200191505060405180910390f35b3480156107b757600080fd5b50610804600480360360408110156107ce57600080fd5b81019080803573ffffffffffffffffffffffffffffffffffffffff16906020019092919080359060200190929190505050612661565b005b34801561081257600080fd5b5061083f6004803603602081101561082957600080fd5b8101908080359060200190929190505050612cd6565b604051808273ffffffffffffffffffffffffffffffffffffffff16815260200191505060405180910390f35b34801561087757600080fd5b50610880612d0d565b6040518080602001828103825283818151815260200191508051906020019080838360005b838110156108c05780820151818401526020810190506108a5565b50505050905090810190601f1680156108ed5780820380516001836020036101000a031916815260200191505b509250505060405180910390f35b34801561090757600080fd5b5061094a6004803603602081101561091e57600080fd5b81019080803573ffffffffffffffffffffffffffffffffffffffff169060200190929190505050612daf565b6040518082815260200191505060405180910390f35b34801561096c57600080fd5b506109af6004803603602081101561098357600080fd5b81019080803573ffffffffffffffffffffffffffffffffffffffff169060200190929190505050612e84565b6040518082815260200191505060405180910390f35b3480156109d157600080fd5b506109da612e96565b6040518080602001828103825283818151815260200191508051906020019080838360005b83811015610a1a5780820151818401526020810190506109ff565b50505050905090810190601f168015610a475780820380516001836020036101000a031916815260200191505b509250505060405180910390f35b348015610a6157600080fd5b50610ab060048036036040811015610a7857600080fd5b81019080803573ffffffffffffffffffffffffffffffffffffffff169060200190929190803515159060200190929190505050612f38565b005b348015610abe57600080fd5b50610b0160048036036020811015610ad557600080fd5b81019080803573ffffffffffffffffffffffffffffffffffffffff1690602001909291905050506130ee565b005b348015610b0f57600080fd5b50610c1360048036036080811015610b2657600080fd5b81019080803573ffffffffffffffffffffffffffffffffffffffff169060200190929190803573ffffffffffffffffffffffffffffffffffffffff1690602001909291908035906020019092919080359060200190640100000000811115610b8d57600080fd5b820183602082011115610b9f57600080fd5b80359060200191846001830284011164010000000083111715610bc157600080fd5b91908080601f016020809104026020016040519081016040528093929190818152602001838380828437600081840152601f19601f82011690508083019250505050505050919291929050505061319e565b005b348015610c2157600080fd5b50610c4e60048036036020811015610c3857600080fd5b8101908080359060200190929190505050613216565b604051808273ffffffffffffffffffffffffffffffffffffffff16815260200191505060405180910390f35b348015610c8657600080fd5b50610cb360048036036020811015610c9d57600080fd5b8101908080359060200190929190505050613228565b6040518080602001828103825283818151815260200191508051906020019080838360005b83811015610cf3578082015181840152602081019050610cd8565b50505050905090810190601f168015610d205780820380516001836020036101000a031916815260200191505b509250505060405180910390f35b348015610d3a57600080fd5b50610ea9600480360360a0811015610d5157600080fd5b8101908080359060200190640100000000811115610d6e57600080fd5b820183602082011115610d8057600080fd5b80359060200191846001830284011164010000000083111715610da257600080fd5b91908080601f016020809104026020016040519081016040528093929190818152602001838380828437600081840152601f19601f82011690508083019250505050505050919291929080359060200190929190803590602001909291908035906020019092919080359060200190640100000000811115610e2357600080fd5b820183602082011115610e3557600080fd5b80359060200191846001830284011164010000000083111715610e5757600080fd5b91908080601f016020809104026020016040519081016040528093929190818152602001838380828437600081840152601f19601f8201169050808301925050505050505091929192905050506134f9565b005b348015610eb757600080fd5b50610f1a60048036036040811015610ece57600080fd5b81019080803573ffffffffffffffffffffffffffffffffffffffff169060200190929190803573ffffffffffffffffffffffffffffffffffffffff169060200190929190505050613aaa565b60405180821515815260200191505060405180910390f35b610f6860048036036040811015610f4857600080fd5b810190808035906020019092919080359060200190929190505050613b3e565b005b6000806000837bffffffffffffffffffffffffffffffffffffffffffffffffffffffff19167bffffffffffffffffffffffffffffffffffffffffffffffffffffffff1916815260200190815260200160002060009054906101000a900460ff169050919050565b606060068054600181600116156101000203166002900480601f0160208091040260200160405190810160405280929190818152602001828054600181600116156101000203166002900480156110695780601f1061103e57610100808354040283529160200191611069565b820191906000526020600020905b81548152906001019060200180831161104c57829003601f168201915b5050505050905090565b600061107e82614274565b6110d3576040517f08c379a000000000000000000000000000000000000000000000000000000000815260040180806020018281038252602c815260200180615a06602c913960400191505060405180910390fd5b6004600083815260200190815260200160002060009054906101000a900473ffffffffffffffffffffffffffffffffffffffff169050919050565b600061111982612cd6565b90508073ffffffffffffffffffffffffffffffffffffffff168373ffffffffffffffffffffffffffffffffffffffff1614156111a0576040517f08c379a0000000000000000000000000000000000000000000000000000000008152600401808060200182810382526021815260200180615aae6021913960400191505060405180910390fd5b8073ffffffffffffffffffffffffffffffffffffffff166111bf614291565b73ffffffffffffffffffffffffffffffffffffffff1614806111ee57506111ed816111e8614291565b613aaa565b5b611243576040517f08c379a000000000000000000000000000000000000000000000000000000000815260040180806020018281038252603881526020018061592b6038913960400191505060405180910390fd5b61124d8383614299565b505050565b60008161125d615566565b600c60008381526020019081526020016000206040518061014001604052908160008201548152602001600182018054600181600116156101000203166002900480601f01602080910402602001604051908101604052809291908181526020018280546001816001161561010002031660029004801561131f5780601f106112f45761010080835404028352916020019161131f565b820191906000526020600020905b81548152906001019060200180831161130257829003601f168201915b50505050508152602001600282015481526020016003820154815260200160048201548152602001600582018054600181600116156101000203166002900480601f0160208091040260200160405190810160405280929190818152602001828054600181600116156101000203166002900480156113df5780601f106113b4576101008083540402835291602001916113df565b820191906000526020600020905b8154815290600101906020018083116113c257829003601f168201915b505050505081526020016006820160009054906101000a900460ff161515151581526020016006820160019054906101000a900460ff16600281111561142157fe5b600281111561142c57fe5b81526020016006820160029054906101000a900473ffffffffffffffffffffffffffffffffffffffff1673ffffffffffffffffffffffffffffffffffffffff1673ffffffffffffffffffffffffffffffffffffffff1681526020016007820160009054906101000a900473ffffffffffffffffffffffffffffffffffffffff1673ffffffffffffffffffffffffffffffffffffffff1673ffffffffffffffffffffffffffffffffffffffff168152505090508260028111156114ea57fe5b8160e0015160028111156114fa57fe5b1461150457600080fd5b61150d84614352565b611562576040517f08c379a0000000000000000000000000000000000000000000000000000000008152600401808060200182810382526024815260200180615a8a6024913960400191505060405180910390fd5b61156a615566565b600c60008681526020019081526020016000206040518061014001604052908160008201548152602001600182018054600181600116156101000203166002900480601f01602080910402602001604051908101604052809291908181526020018280546001816001161561010002031660029004801561162c5780601f106116015761010080835404028352916020019161162c565b820191906000526020600020905b81548152906001019060200180831161160f57829003601f168201915b50505050508152602001600282015481526020016003820154815260200160048201548152602001600582018054600181600116156101000203166002900480601f0160208091040260200160405190810160405280929190818152602001828054600181600116156101000203166002900480156116ec5780601f106116c1576101008083540402835291602001916116ec565b820191906000526020600020905b8154815290600101906020018083116116cf57829003601f168201915b505050505081526020016006820160009054906101000a900460ff161515151581526020016006820160019054906101000a900460ff16600281111561172e57fe5b600281111561173957fe5b81526020016006820160029054906101000a900473ffffffffffffffffffffffffffffffffffffffff1673ffffffffffffffffffffffffffffffffffffffff1673ffffffffffffffffffffffffffffffffffffffff1681526020016007820160009054906101000a900473ffffffffffffffffffffffffffffffffffffffff1673ffffffffffffffffffffffffffffffffffffffff1673ffffffffffffffffffffffffffffffffffffffff1681525050905060008160000151905060003373ffffffffffffffffffffffffffffffffffffffff1661181688611073565b73ffffffffffffffffffffffffffffffffffffffff161480611843575061184283610120015133613aaa565b5b90508061189b576040517f08c379a000000000000000000000000000000000000000000000000000000000815260040180806020018281038252602d8152602001806158fe602d913960400191505060405180910390fd5b82604001513410156118f8576040517f08c379a000000000000000000000000000000000000000000000000000000000815260040180806020018281038252602e8152602001806156e2602e913960400191505060405180910390fd5b600073ffffffffffffffffffffffffffffffffffffffff163373ffffffffffffffffffffffffffffffffffffffff16141561197e576040517f08c379a00000000000000000000000000000000000000000000000000000000081526004018080602001828103825260308152602001806157a16030913960400191505060405180910390fd5b82604001513411156119d8573373ffffffffffffffffffffffffffffffffffffffff166108fc846040015134039081150290604051600060405180830381858888f193505050501580156119d6573d6000803e3d6000fd5b505b82610120015173ffffffffffffffffffffffffffffffffffffffff166108fc84604001519081150290604051600060405180830381858888f19350505050158015611a27573d6000803e3d6000fd5b50611a388361012001513389611bf1565b863373ffffffffffffffffffffffffffffffffffffffff1684610120015173ffffffffffffffffffffffffffffffffffffffff167fddf252ad1be2c89b69c2b068fc378daa952ba7f163c4a11628f55a4df523b3ef60405160405180910390a433600c600089815260200190815260200160002060070160006101000a81548173ffffffffffffffffffffffffffffffffffffffff021916908373ffffffffffffffffffffffffffffffffffffffff1602179055506001600c600089815260200190815260200160002060060160016101000a81548160ff02191690836002811115611b2057fe5b021790555033600b8381548110611b3357fe5b906000526020600020906008020160070160006101000a81548173ffffffffffffffffffffffffffffffffffffffff021916908373ffffffffffffffffffffffffffffffffffffffff1602179055506001600b8381548110611b9157fe5b906000526020600020906008020160060160016101000a81548160ff02191690836002811115611bbd57fe5b021790555050505050505050565b600a5481565b6000611bdd6002614375565b905090565b6000611bec611bd1565b905090565b611c02611bfc614291565b8261438a565b611c57576040517f08c379a0000000000000000000000000000000000000000000000000000000008152600401808060200182810382526031815260200180615acf6031913960400191505060405180910390fd5b611c6283838361447e565b505050565b80611c7181612cd6565b73ffffffffffffffffffffffffffffffffffffffff163373ffffffffffffffffffffffffffffffffffffffff1614611cf4576040517f08c379a00000000000000000000000000000000000000000000000000000000081526004018080602001828103825260298152602001806157106029913960400191505060405180910390fd5b600182611cff615566565b600c60008381526020019081526020016000206040518061014001604052908160008201548152602001600182018054600181600116156101000203166002900480601f016020809104026020016040519081016040528092919081815260200182805460018160011615610100020316600290048015611dc15780601f10611d9657610100808354040283529160200191611dc1565b820191906000526020600020905b815481529060010190602001808311611da457829003601f168201915b50505050508152602001600282015481526020016003820154815260200160048201548152602001600582018054600181600116156101000203166002900480601f016020809104026020016040519081016040528092919081815260200182805460018160011615610100020316600290048015611e815780601f10611e5657610100808354040283529160200191611e81565b820191906000526020600020905b815481529060010190602001808311611e6457829003601f168201915b505050505081526020016006820160009054906101000a900460ff161515151581526020016006820160019054906101000a900460ff166002811115611ec357fe5b6002811115611ece57fe5b81526020016006820160029054906101000a900473ffffffffffffffffffffffffffffffffffffffff1673ffffffffffffffffffffffffffffffffffffffff1673ffffffffffffffffffffffffffffffffffffffff1681526020016007820160009054906101000a900473ffffffffffffffffffffffffffffffffffffffff1673ffffffffffffffffffffffffffffffffffffffff1673ffffffffffffffffffffffffffffffffffffffff16815250509050826002811115611f8c57fe5b8160e001516002811115611f9c57fe5b14611fa657600080fd5b611faf85614352565b612004576040517f08c379a0000000000000000000000000000000000000000000000000000000008152600401808060200182810382526024815260200180615a8a6024913960400191505060405180910390fd5b61200c615566565b600c60008781526020019081526020016000206040518061014001604052908160008201548152602001600182018054600181600116156101000203166002900480601f0160208091040260200160405190810160405280929190818152602001828054600181600116156101000203166002900480156120ce5780601f106120a3576101008083540402835291602001916120ce565b820191906000526020600020905b8154815290600101906020018083116120b157829003601f168201915b50505050508152602001600282015481526020016003820154815260200160048201548152602001600582018054600181600116156101000203166002900480601f01602080910402602001604051908101604052809291908181526020018280546001816001161561010002031660029004801561218e5780601f106121635761010080835404028352916020019161218e565b820191906000526020600020905b81548152906001019060200180831161217157829003601f168201915b505050505081526020016006820160009054906101000a900460ff161515151581526020016006820160019054906101000a900460ff1660028111156121d057fe5b60028111156121db57fe5b81526020016006820160029054906101000a900473ffffffffffffffffffffffffffffffffffffffff1673ffffffffffffffffffffffffffffffffffffffff1673ffffffffffffffffffffffffffffffffffffffff1681526020016007820160009054906101000a900473ffffffffffffffffffffffffffffffffffffffff1673ffffffffffffffffffffffffffffffffffffffff1673ffffffffffffffffffffffffffffffffffffffff16815250509050600081600001519050816060015142116122f2576040517f08c379a000000000000000000000000000000000000000000000000000000000815260040180806020018281038252603681526020018061576b6036913960400191505060405180910390fd5b428260600151116123dc576002600c600089815260200190815260200160002060060160016101000a81548160ff0219169083600281111561233057fe5b02179055506001600c600089815260200190815260200160002060060160006101000a81548160ff0219169083151502179055506002600b828154811061237357fe5b906000526020600020906008020160060160016101000a81548160ff0219169083600281111561239f57fe5b02179055506001600b82815481106123b357fe5b906000526020600020906008020160060160006101000a81548160ff0219169083151502179055505b50505050505050565b600061243882600160008673ffffffffffffffffffffffffffffffffffffffff1673ffffffffffffffffffffffffffffffffffffffff1681526020019081526020016000206146c190919063ffffffff16565b905092915050565b61245b8383836040518060200160405280600081525061319e565b505050565b600c602052806000526040600020600091509050806000015490806001018054600181600116156101000203166002900480601f0160208091040260200160405190810160405280929190818152602001828054600181600116156101000203166002900480156125125780601f106124e757610100808354040283529160200191612512565b820191906000526020600020905b8154815290600101906020018083116124f557829003601f168201915b505050505090806002015490806003015490806004015490806005018054600181600116156101000203166002900480601f0160208091040260200160405190810160405280929190818152602001828054600181600116156101000203166002900480156125c25780601f10612597576101008083540402835291602001916125c2565b820191906000526020600020905b8154815290600101906020018083116125a557829003601f168201915b5050505050908060060160009054906101000a900460ff16908060060160019054906101000a900460ff16908060060160029054906101000a900473ffffffffffffffffffffffffffffffffffffffff16908060070160009054906101000a900473ffffffffffffffffffffffffffffffffffffffff1690508a565b6000806126558360026146db90919063ffffffff16565b50905080915050919050565b8061266b81612cd6565b73ffffffffffffffffffffffffffffffffffffffff163373ffffffffffffffffffffffffffffffffffffffff16146126ee576040517f08c379a00000000000000000000000000000000000000000000000000000000081526004018080602001828103825260298152602001806157106029913960400191505060405180910390fd5b6000826126f9615566565b600c60008381526020019081526020016000206040518061014001604052908160008201548152602001600182018054600181600116156101000203166002900480601f0160208091040260200160405190810160405280929190818152602001828054600181600116156101000203166002900480156127bb5780601f10612790576101008083540402835291602001916127bb565b820191906000526020600020905b81548152906001019060200180831161279e57829003601f168201915b50505050508152602001600282015481526020016003820154815260200160048201548152602001600582018054600181600116156101000203166002900480601f01602080910402602001604051908101604052809291908181526020018280546001816001161561010002031660029004801561287b5780601f106128505761010080835404028352916020019161287b565b820191906000526020600020905b81548152906001019060200180831161285e57829003601f168201915b505050505081526020016006820160009054906101000a900460ff161515151581526020016006820160019054906101000a900460ff1660028111156128bd57fe5b60028111156128c857fe5b81526020016006820160029054906101000a900473ffffffffffffffffffffffffffffffffffffffff1673ffffffffffffffffffffffffffffffffffffffff1673ffffffffffffffffffffffffffffffffffffffff1681526020016007820160009054906101000a900473ffffffffffffffffffffffffffffffffffffffff1673ffffffffffffffffffffffffffffffffffffffff1673ffffffffffffffffffffffffffffffffffffffff1681525050905082600281111561298657fe5b8160e00151600281111561299657fe5b146129a057600080fd5b600073ffffffffffffffffffffffffffffffffffffffff168673ffffffffffffffffffffffffffffffffffffffff1614156129da57600080fd5b6129e2615566565b600c60008781526020019081526020016000206040518061014001604052908160008201548152602001600182018054600181600116156101000203166002900480601f016020809104026020016040519081016040528092919081815260200182805460018160011615610100020316600290048015612aa45780601f10612a7957610100808354040283529160200191612aa4565b820191906000526020600020905b815481529060010190602001808311612a8757829003601f168201915b50505050508152602001600282015481526020016003820154815260200160048201548152602001600582018054600181600116156101000203166002900480601f016020809104026020016040519081016040528092919081815260200182805460018160011615610100020316600290048015612b645780601f10612b3957610100808354040283529160200191612b64565b820191906000526020600020905b815481529060010190602001808311612b4757829003601f168201915b505050505081526020016006820160009054906101000a900460ff161515151581526020016006820160019054906101000a900460ff166002811115612ba657fe5b6002811115612bb157fe5b81526020016006820160029054906101000a900473ffffffffffffffffffffffffffffffffffffffff1673ffffffffffffffffffffffffffffffffffffffff1673ffffffffffffffffffffffffffffffffffffffff1681526020016007820160009054906101000a900473ffffffffffffffffffffffffffffffffffffffff1673ffffffffffffffffffffffffffffffffffffffff1673ffffffffffffffffffffffffffffffffffffffff16815250509050612c6d878761110e565b858773ffffffffffffffffffffffffffffffffffffffff1682610120015173ffffffffffffffffffffffffffffffffffffffff167f8c5be1e5ebec7d5bd14f71427d1e84f3dd0314c0f7b2291e5b200ac8c7c3b92560405160405180910390a450505050505050565b6000612d068260405180606001604052806029815260200161598d6029913960026147079092919063ffffffff16565b9050919050565b606060098054600181600116156101000203166002900480601f016020809104026020016040519081016040528092919081815260200182805460018160011615610100020316600290048015612da55780601f10612d7a57610100808354040283529160200191612da5565b820191906000526020600020905b815481529060010190602001808311612d8857829003601f168201915b5050505050905090565b60008073ffffffffffffffffffffffffffffffffffffffff168273ffffffffffffffffffffffffffffffffffffffff161415612e36576040517f08c379a000000000000000000000000000000000000000000000000000000000815260040180806020018281038252602a815260200180615963602a913960400191505060405180910390fd5b612e7d600160008473ffffffffffffffffffffffffffffffffffffffff1673ffffffffffffffffffffffffffffffffffffffff168152602001908152602001600020614726565b9050919050565b6000612e8f82612daf565b9050919050565b606060078054600181600116156101000203166002900480601f016020809104026020016040519081016040528092919081815260200182805460018160011615610100020316600290048015612f2e5780601f10612f0357610100808354040283529160200191612f2e565b820191906000526020600020905b815481529060010190602001808311612f1157829003601f168201915b5050505050905090565b612f40614291565b73ffffffffffffffffffffffffffffffffffffffff168273ffffffffffffffffffffffffffffffffffffffff161415612fe1576040517f08c379a00000000000000000000000000000000000000000000000000000000081526004018080602001828103825260198152602001807f4552433732313a20617070726f766520746f2063616c6c65720000000000000081525060200191505060405180910390fd5b8060056000612fee614291565b73ffffffffffffffffffffffffffffffffffffffff1673ffffffffffffffffffffffffffffffffffffffff16815260200190815260200160002060008473ffffffffffffffffffffffffffffffffffffffff1673ffffffffffffffffffffffffffffffffffffffff16815260200190815260200160002060006101000a81548160ff0219169083151502179055508173ffffffffffffffffffffffffffffffffffffffff1661309b614291565b73ffffffffffffffffffffffffffffffffffffffff167f17307eab39ab6107e8899845ad3d59bd9653f200f220920489ca2b5937696c318360405180821515815260200191505060405180910390a35050565b600073ffffffffffffffffffffffffffffffffffffffff168173ffffffffffffffffffffffffffffffffffffffff16141561312857600080fd5b613133816001612f38565b8073ffffffffffffffffffffffffffffffffffffffff163373ffffffffffffffffffffffffffffffffffffffff167f17307eab39ab6107e8899845ad3d59bd9653f200f220920489ca2b5937696c31600160405180821515815260200191505060405180910390a350565b6131af6131a9614291565b8361438a565b613204576040517f08c379a0000000000000000000000000000000000000000000000000000000008152600401808060200182810382526031815260200180615acf6031913960400191505060405180910390fd5b6132108484848461473b565b50505050565b600061322182612cd6565b9050919050565b606061323382614274565b613288576040517f08c379a000000000000000000000000000000000000000000000000000000000815260040180806020018281038252602f815260200180615a5b602f913960400191505060405180910390fd5b6060600860008481526020019081526020016000208054600181600116156101000203166002900480601f0160208091040260200160405190810160405280929190818152602001828054600181600116156101000203166002900480156133315780601f1061330657610100808354040283529160200191613331565b820191906000526020600020905b81548152906001019060200180831161331457829003601f168201915b505050505090506060613342612d0d565b90506000815114156133585781925050506134f4565b6000825111156134295780826040516020018083805190602001908083835b6020831061339a5780518252602082019150602081019050602083039250613377565b6001836020036101000a03801982511681845116808217855250505050505090500182805190602001908083835b602083106133eb57805182526020820191506020810190506020830392506133c8565b6001836020036101000a03801982511681845116808217855250505050505090500192505050604051602081830303815290604052925050506134f4565b80613433856147ad565b6040516020018083805190602001908083835b602083106134695780518252602082019150602081019050602083039250613446565b6001836020036101000a03801982511681845116808217855250505050505090500182805190602001908083835b602083106134ba5780518252602082019150602081019050602083039250613497565b6001836020036101000a03801982511681845116808217855250505050505090500192505050604051602081830303815290604052925050505b919050565b6000855111613553576040517f08c379a000000000000000000000000000000000000000000000000000000000815260040180806020018281038252602c8152602001806158d2602c913960400191505060405180910390fd5b600084116135ac576040517f08c379a000000000000000000000000000000000000000000000000000000000815260040180806020018281038252602b8152602001806157d1602b913960400191505060405180910390fd5b60008311613605576040517f08c379a00000000000000000000000000000000000000000000000000000000081526004018080602001828103825260308152602001806156906030913960400191505060405180910390fd5b6000821161365e576040517f08c379a000000000000000000000000000000000000000000000000000000000815260040180806020018281038252602e8152602001806159d8602e913960400191505060405180910390fd5b60008151116136b8576040517f08c379a00000000000000000000000000000000000000000000000000000000081526004018080602001828103825260308152602001806158506030913960400191505060405180910390fd5b828211613710576040517f08c379a00000000000000000000000000000000000000000000000000000000081526004018080602001828103825260308152602001806157fc6030913960400191505060405180910390fd5b613718615566565b604051806101400160405280600081526020018781526020018681526020018581526020018481526020018381526020016000151581526020016000600281111561375f57fe5b81526020013373ffffffffffffffffffffffffffffffffffffffff1681526020013373ffffffffffffffffffffffffffffffffffffffff168152509050600b8190806001815401808255809150506001900390600052602060002090600802016000909190919091506000820151816000015560208201518160010190805190602001906137ee9291906155f2565b5060408201518160020155606082015181600301556080820151816004015560a08201518160050190805190602001906138299291906155f2565b5060c08201518160060160006101000a81548160ff02191690831515021790555060e08201518160060160016101000a81548160ff0219169083600281111561386e57fe5b02179055506101008201518160060160026101000a81548173ffffffffffffffffffffffffffffffffffffffff021916908373ffffffffffffffffffffffffffffffffffffffff1602179055506101208201518160070160006101000a81548173ffffffffffffffffffffffffffffffffffffffff021916908373ffffffffffffffffffffffffffffffffffffffff160217905550505060006001600b8054905003905061391c33826148f4565b600081905080600b828154811061392f57fe5b9060005260206000209060080201600001819055508083600001818152505082600c60008481526020019081526020016000206000820151816000015560208201518160010190805190602001906139889291906155f2565b5060408201518160020155606082015181600301556080820151816004015560a08201518160050190805190602001906139c39291906155f2565b5060c08201518160060160006101000a81548160ff02191690831515021790555060e08201518160060160016101000a81548160ff02191690836002811115613a0857fe5b02179055506101008201518160060160026101000a81548173ffffffffffffffffffffffffffffffffffffffff021916908373ffffffffffffffffffffffffffffffffffffffff1602179055506101208201518160070160006101000a81548173ffffffffffffffffffffffffffffffffffffffff021916908373ffffffffffffffffffffffffffffffffffffffff1602179055509050505050505050505050565b6000600560008473ffffffffffffffffffffffffffffffffffffffff1673ffffffffffffffffffffffffffffffffffffffff16815260200190815260200160002060008373ffffffffffffffffffffffffffffffffffffffff1673ffffffffffffffffffffffffffffffffffffffff16815260200190815260200160002060009054906101000a900460ff16905092915050565b81613b4881612cd6565b73ffffffffffffffffffffffffffffffffffffffff163373ffffffffffffffffffffffffffffffffffffffff1614613bcb576040517f08c379a00000000000000000000000000000000000000000000000000000000081526004018080602001828103825260298152602001806157106029913960400191505060405180910390fd5b600183613bd6615566565b600c60008381526020019081526020016000206040518061014001604052908160008201548152602001600182018054600181600116156101000203166002900480601f016020809104026020016040519081016040528092919081815260200182805460018160011615610100020316600290048015613c985780601f10613c6d57610100808354040283529160200191613c98565b820191906000526020600020905b815481529060010190602001808311613c7b57829003601f168201915b50505050508152602001600282015481526020016003820154815260200160048201548152602001600582018054600181600116156101000203166002900480601f016020809104026020016040519081016040528092919081815260200182805460018160011615610100020316600290048015613d585780601f10613d2d57610100808354040283529160200191613d58565b820191906000526020600020905b815481529060010190602001808311613d3b57829003601f168201915b505050505081526020016006820160009054906101000a900460ff161515151581526020016006820160019054906101000a900460ff166002811115613d9a57fe5b6002811115613da557fe5b81526020016006820160029054906101000a900473ffffffffffffffffffffffffffffffffffffffff1673ffffffffffffffffffffffffffffffffffffffff1673ffffffffffffffffffffffffffffffffffffffff1681526020016007820160009054906101000a900473ffffffffffffffffffffffffffffffffffffffff1673ffffffffffffffffffffffffffffffffffffffff1673ffffffffffffffffffffffffffffffffffffffff16815250509050826002811115613e6357fe5b8160e001516002811115613e7357fe5b14613e7d57600080fd5b600073ffffffffffffffffffffffffffffffffffffffff163373ffffffffffffffffffffffffffffffffffffffff161415613eb757600080fd5b613ec086614352565b613f15576040517f08c379a0000000000000000000000000000000000000000000000000000000008152600401808060200182810382526024815260200180615a8a6024913960400191505060405180910390fd5b60008511613f2257600080fd5b613f2a615566565b600c60008881526020019081526020016000206040518061014001604052908160008201548152602001600182018054600181600116156101000203166002900480601f016020809104026020016040519081016040528092919081815260200182805460018160011615610100020316600290048015613fec5780601f10613fc157610100808354040283529160200191613fec565b820191906000526020600020905b815481529060010190602001808311613fcf57829003601f168201915b50505050508152602001600282015481526020016003820154815260200160048201548152602001600582018054600181600116156101000203166002900480601f0160208091040260200160405190810160405280929190818152602001828054600181600116156101000203166002900480156140ac5780601f10614081576101008083540402835291602001916140ac565b820191906000526020600020905b81548152906001019060200180831161408f57829003601f168201915b505050505081526020016006820160009054906101000a900460ff161515151581526020016006820160019054906101000a900460ff1660028111156140ee57fe5b60028111156140f957fe5b81526020016006820160029054906101000a900473ffffffffffffffffffffffffffffffffffffffff1673ffffffffffffffffffffffffffffffffffffffff1673ffffffffffffffffffffffffffffffffffffffff1681526020016007820160009054906101000a900473ffffffffffffffffffffffffffffffffffffffff1673ffffffffffffffffffffffffffffffffffffffff1673ffffffffffffffffffffffffffffffffffffffff168152505090506000816000015190506000600c60008a815260200190815260200160002060060160016101000a81548160ff021916908360028111156141e757fe5b021790555086600c60008a8152602001908152602001600020600201819055506000600b828154811061421657fe5b906000526020600020906008020160060160016101000a81548160ff0219169083600281111561424257fe5b021790555086600b828154811061425557fe5b9060005260206000209060080201600201819055505050505050505050565b600061428a82600261491290919063ffffffff16565b9050919050565b600033905090565b816004600083815260200190815260200160002060006101000a81548173ffffffffffffffffffffffffffffffffffffffff021916908373ffffffffffffffffffffffffffffffffffffffff160217905550808273ffffffffffffffffffffffffffffffffffffffff1661430c83612cd6565b73ffffffffffffffffffffffffffffffffffffffff167f8c5be1e5ebec7d5bd14f71427d1e84f3dd0314c0f7b2291e5b200ac8c7c3b92560405160405180910390a45050565b600080600c60008481526020019081526020016000206002015414159050919050565b60006143838260000161492c565b9050919050565b600061439582614274565b6143ea576040517f08c379a000000000000000000000000000000000000000000000000000000000815260040180806020018281038252602c8152602001806158a6602c913960400191505060405180910390fd5b60006143f583612cd6565b90508073ffffffffffffffffffffffffffffffffffffffff168473ffffffffffffffffffffffffffffffffffffffff16148061446457508373ffffffffffffffffffffffffffffffffffffffff1661444c84611073565b73ffffffffffffffffffffffffffffffffffffffff16145b8061447557506144748185613aaa565b5b91505092915050565b8273ffffffffffffffffffffffffffffffffffffffff1661449e82612cd6565b73ffffffffffffffffffffffffffffffffffffffff161461450a576040517f08c379a0000000000000000000000000000000000000000000000000000000008152600401808060200182810382526029815260200180615a326029913960400191505060405180910390fd5b600073ffffffffffffffffffffffffffffffffffffffff168273ffffffffffffffffffffffffffffffffffffffff161415614590576040517f08c379a000000000000000000000000000000000000000000000000000000000815260040180806020018281038252602481526020018061582c6024913960400191505060405180910390fd5b61459b83838361493d565b6145a6600082614299565b6145f781600160008673ffffffffffffffffffffffffffffffffffffffff1673ffffffffffffffffffffffffffffffffffffffff16815260200190815260200160002061494290919063ffffffff16565b5061464981600160008573ffffffffffffffffffffffffffffffffffffffff1673ffffffffffffffffffffffffffffffffffffffff16815260200190815260200160002061495c90919063ffffffff16565b50614660818360026149769092919063ffffffff16565b50808273ffffffffffffffffffffffffffffffffffffffff168473ffffffffffffffffffffffffffffffffffffffff167fddf252ad1be2c89b69c2b068fc378daa952ba7f163c4a11628f55a4df523b3ef60405160405180910390a4505050565b60006146d083600001836149ab565b60001c905092915050565b6000806000806146ee8660000186614a2e565b915091508160001c8160001c9350935050509250929050565b600061471a846000018460001b84614ac7565b60001c90509392505050565b600061473482600001614bbd565b9050919050565b61474684848461447e565b61475284848484614bce565b6147a7576040517f08c379a00000000000000000000000000000000000000000000000000000000081526004018080602001828103825260328152602001806157396032913960400191505060405180910390fd5b50505050565b606060008214156147f5576040518060400160405280600181526020017f300000000000000000000000000000000000000000000000000000000000000081525090506148ef565b600082905060005b6000821461481f578080600101915050600a828161481757fe5b0491506147fd565b60608167ffffffffffffffff8111801561483857600080fd5b506040519080825280601f01601f19166020018201604052801561486b5781602001600182028036833780820191505090505b50905060006001830390508593505b600084146148e757600a848161488c57fe5b0660300160f81b828280600190039350815181106148a657fe5b60200101907effffffffffffffffffffffffffffffffffffffffffffffffffffffffffffff1916908160001a905350600a84816148df57fe5b04935061487a565b819450505050505b919050565b61490e828260405180602001604052806000815250614de7565b5050565b6000614924836000018360001b614e58565b905092915050565b600081600001805490509050919050565b505050565b6000614954836000018360001b614e7b565b905092915050565b600061496e836000018360001b614f63565b905092915050565b60006149a2846000018460001b8473ffffffffffffffffffffffffffffffffffffffff1660001b614fd3565b90509392505050565b600081836000018054905011614a0c576040517f08c379a00000000000000000000000000000000000000000000000000000000081526004018080602001828103825260228152602001806156c06022913960400191505060405180910390fd5b826000018281548110614a1b57fe5b9060005260206000200154905092915050565b60008082846000018054905011614a90576040517f08c379a00000000000000000000000000000000000000000000000000000000081526004018080602001828103825260228152602001806159b66022913960400191505060405180910390fd5b6000846000018481548110614aa157fe5b906000526020600020906002020190508060000154816001015492509250509250929050565b60008084600101600085815260200190815260200160002054905060008114158390614b8e576040517f08c379a00000000000000000000000000000000000000000000000000000000081526004018080602001828103825283818151815260200191508051906020019080838360005b83811015614b53578082015181840152602081019050614b38565b50505050905090810190601f168015614b805780820380516001836020036101000a031916815260200191505b509250505060405180910390fd5b50846000016001820381548110614ba157fe5b9060005260206000209060020201600101549150509392505050565b600081600001805490509050919050565b6000614bef8473ffffffffffffffffffffffffffffffffffffffff166150af565b614bfc5760019050614ddf565b6060614d6663150b7a0260e01b614c11614291565b888787604051602401808573ffffffffffffffffffffffffffffffffffffffff1681526020018473ffffffffffffffffffffffffffffffffffffffff16815260200183815260200180602001828103825283818151815260200191508051906020019080838360005b83811015614c95578082015181840152602081019050614c7a565b50505050905090810190601f168015614cc25780820380516001836020036101000a031916815260200191505b5095505050505050604051602081830303815290604052907bffffffffffffffffffffffffffffffffffffffffffffffffffffffff19166020820180517bffffffffffffffffffffffffffffffffffffffffffffffffffffffff8381831617835250505050604051806060016040528060328152602001615739603291398773ffffffffffffffffffffffffffffffffffffffff166150c29092919063ffffffff16565b90506000818060200190516020811015614d7f57600080fd5b8101908080519060200190929190505050905063150b7a0260e01b7bffffffffffffffffffffffffffffffffffffffffffffffffffffffff1916817bffffffffffffffffffffffffffffffffffffffffffffffffffffffff191614925050505b949350505050565b614df183836150da565b614dfe6000848484614bce565b614e53576040517f08c379a00000000000000000000000000000000000000000000000000000000081526004018080602001828103825260328152602001806157396032913960400191505060405180910390fd5b505050565b600080836001016000848152602001908152602001600020541415905092915050565b60008083600101600084815260200190815260200160002054905060008114614f575760006001820390506000600186600001805490500390506000866000018281548110614ec657fe5b9060005260206000200154905080876000018481548110614ee357fe5b9060005260206000200181905550600183018760010160008381526020019081526020016000208190555086600001805480614f1b57fe5b60019003818190600052602060002001600090559055866001016000878152602001908152602001600020600090556001945050505050614f5d565b60009150505b92915050565b6000614f6f83836152ce565b614fc8578260000182908060018154018082558091505060019003906000526020600020016000909190919091505582600001805490508360010160008481526020019081526020016000208190555060019050614fcd565b600090505b92915050565b600080846001016000858152602001908152602001600020549050600081141561507a578460000160405180604001604052808681526020018581525090806001815401808255809150506001900390600052602060002090600202016000909190919091506000820151816000015560208201518160010155505084600001805490508560010160008681526020019081526020016000208190555060019150506150a8565b8285600001600183038154811061508d57fe5b90600052602060002090600202016001018190555060009150505b9392505050565b600080823b905060008111915050919050565b60606150d184846000856152f1565b90509392505050565b600073ffffffffffffffffffffffffffffffffffffffff168273ffffffffffffffffffffffffffffffffffffffff16141561517d576040517f08c379a00000000000000000000000000000000000000000000000000000000081526004018080602001828103825260208152602001807f4552433732313a206d696e7420746f20746865207a65726f206164647265737381525060200191505060405180910390fd5b61518681614274565b156151f9576040517f08c379a000000000000000000000000000000000000000000000000000000000815260040180806020018281038252601c8152602001807f4552433732313a20746f6b656e20616c7265616479206d696e7465640000000081525060200191505060405180910390fd5b6152056000838361493d565b61525681600160008573ffffffffffffffffffffffffffffffffffffffff1673ffffffffffffffffffffffffffffffffffffffff16815260200190815260200160002061495c90919063ffffffff16565b5061526d818360026149769092919063ffffffff16565b50808273ffffffffffffffffffffffffffffffffffffffff16600073ffffffffffffffffffffffffffffffffffffffff167fddf252ad1be2c89b69c2b068fc378daa952ba7f163c4a11628f55a4df523b3ef60405160405180910390a45050565b600080836001016000848152602001908152602001600020541415905092915050565b60608247101561534c576040517f08c379a00000000000000000000000000000000000000000000000000000000081526004018080602001828103825260268152602001806158806026913960400191505060405180910390fd5b615355856150af565b6153c7576040517f08c379a000000000000000000000000000000000000000000000000000000000815260040180806020018281038252601d8152602001807f416464726573733a2063616c6c20746f206e6f6e2d636f6e747261637400000081525060200191505060405180910390fd5b600060608673ffffffffffffffffffffffffffffffffffffffff1685876040518082805190602001908083835b6020831061541757805182526020820191506020810190506020830392506153f4565b6001836020036101000a03801982511681845116808217855250505050505090500191505060006040518083038185875af1925050503d8060008114615479576040519150601f19603f3d011682016040523d82523d6000602084013e61547e565b606091505b509150915061548e82828661549a565b92505050949350505050565b606083156154aa5782905061555f565b6000835111156154bd5782518084602001fd5b816040517f08c379a00000000000000000000000000000000000000000000000000000000081526004018080602001828103825283818151815260200191508051906020019080838360005b83811015615524578082015181840152602081019050615509565b50505050905090810190601f1680156155515780820380516001836020036101000a031916815260200191505b509250505060405180910390fd5b9392505050565b604051806101400160405280600081526020016060815260200160008152602001600081526020016000815260200160608152602001600015158152602001600060028111156155b257fe5b8152602001600073ffffffffffffffffffffffffffffffffffffffff168152602001600073ffffffffffffffffffffffffffffffffffffffff1681525090565b828054600181600116156101000203166002900490600052602060002090601f016020900481019282601f1061563357805160ff1916838001178555615661565b82800160010185558215615661579182015b82811115615660578251825591602001919060010190615645565b5b50905061566e9190615672565b5090565b5b8082111561568b576000816000905550600101615673565b509056fe436f6e73756c74696e67536572766963653a205468652073746172742074696d652063616e6e6f74206265207a65726f456e756d657261626c655365743a20696e646578206f7574206f6620626f756e6473436f6e73756c74696e67536572766963653a206974206973206e6f7420656e6f756768207468652076616c756520436f6e73756c74696e67536572766963653a206e6f74206f776e6572206f662074686520746f6b656e4552433732313a207472616e7366657220746f206e6f6e20455243373231526563656976657220696d706c656d656e746572436f6e73756c74696e67536572766963653a2063757272656e742074696d65206973206265666f72652072656c656173652074696d65436f6e73756c74696e67536572766963653a207468652062757965722068617320616e2061646472657373207a65726f436f6e73756c74696e67536572766963653a205468652070726963652063616e6e6f74206265207a65726f436f6e73756c74696e67536572766963653a20656e642074696d65206973206265666f72652073746172742074696d654552433732313a207472616e7366657220746f20746865207a65726f2061646472657373436f6e73756c74696e67536572766963653a2054686520686f7374206e616d652063616e6e6f7420626520656d707479416464726573733a20696e73756666696369656e742062616c616e636520666f722063616c6c4552433732313a206f70657261746f7220717565727920666f72206e6f6e6578697374656e7420746f6b656e436f6e73756c74696e67536572766963653a2054686520746f7069632063616e6e6f7420626520656d707479436f6e73756c74696e67536572766963653a20746865206f776e657220646f6573206e6f7420617070726f76654552433732313a20617070726f76652063616c6c6572206973206e6f74206f776e6572206e6f7220617070726f76656420666f7220616c6c4552433732313a2062616c616e636520717565727920666f7220746865207a65726f20616464726573734552433732313a206f776e657220717565727920666f72206e6f6e6578697374656e7420746f6b656e456e756d657261626c654d61703a20696e646578206f7574206f6620626f756e6473436f6e73756c74696e67536572766963653a2054686520656e642074696d652063616e6e6f74206265207a65726f4552433732313a20617070726f76656420717565727920666f72206e6f6e6578697374656e7420746f6b656e4552433732313a207472616e73666572206f6620746f6b656e2074686174206973206e6f74206f776e4552433732314d657461646174613a2055524920717565727920666f72206e6f6e6578697374656e7420746f6b656e436f6e73756c74696e67536572766963653a206e6f6e6578697374616e7420746f6b656e4552433732313a20617070726f76616c20746f2063757272656e74206f776e65724552433732313a207472616e736665722063616c6c6572206973206e6f74206f776e6572206e6f7220617070726f766564a26469706673582212204c36209631bfd34db25557756ac77e1d35f5d348e3ca933c6077a3cf62798b4864736f6c63430007010033",
  "immutableReferences": {},
  "source": "// SPDX-License-Identifier: MIT\r\n\r\npragma solidity ^0.7.1;\r\n\r\nimport \"./token/ERC721/ERC721.sol\";\r\n\r\n/*\r\nBlockchain Consulting\r\nMotivation\r\nSuppose you would like to offer your special knowledge and services as a consultant, \r\nbut you dont want to waste a lot of time on the business aspects of payment coordination and marketing.  \r\nThis NFT-based business gives you an easy way to sell your time and knowledge services for money, \r\neven if you dont know just how much you should charge or how to get the word out.\r\n\r\nThe solution will allow to a Host (Consultant) to define NFTs for his services. \r\nThe host can include information such as topic and time slot (start time and end time) for each appointment. \r\nThe attendees require to have a NFT to attend the service. An attendee can resell a token for a consultant service and\r\nincrease its value.To attend the service, the attendee has to sign a particular message to demonstrate the use of the NFT. \r\nThe attendee only can host the event in the time slot defined by the host.\r\n*/\r\n\r\ncontract ConsultingToken is ERC721(\"ConsultingToken\", \"CNS\") {\r\n    uint256 public time = block.timestamp;\r\n\r\n    enum DeliveredStatus {FOR_SALE, SOLD, RELEASE}\r\n\r\n    struct ConsultingService {\r\n        uint256 id;\r\n        string topic;\r\n        uint256 price;\r\n        uint256 startTime;\r\n        uint256 endTime;\r\n        string hostName;\r\n        bool hostCheckedIn;\r\n        DeliveredStatus status;\r\n        address payable host;\r\n        address payable owner;\r\n    }\r\n\r\n    //Array of consultingServices\r\n    ConsultingService[] private consultingServices;\r\n\r\n    //Mapping consultingServices vs tokenId\r\n    mapping(uint256 => ConsultingService) public tokens;\r\n\r\n    modifier onlyOwner(uint256 _tokenId) {\r\n        require(\r\n            msg.sender == (super.ownerOf(_tokenId)),\r\n            \"ConsultingService: not owner of the token\"\r\n        );\r\n        _;\r\n    }\r\n\r\n    modifier validStatus(DeliveredStatus _status, uint256 _tokenId) {\r\n        ConsultingService memory consultingService = tokens[_tokenId];\r\n        require(consultingService.status == _status);\r\n        _;\r\n    }\r\n\r\n    //Create a token\r\n    function createConsultingService(\r\n        string memory _topic,\r\n        uint256 _price,\r\n        uint256 _startTime,\r\n        uint256 _endTime,\r\n        string memory _hostName\r\n    ) public {\r\n        require(\r\n            bytes(_topic).length > 0,\r\n            \"ConsultingService: The topic cannot be empty\"\r\n        );\r\n        require(_price > 0, \"ConsultingService: The price cannot be zero\");\r\n        require(\r\n            _startTime > 0,\r\n            \"ConsultingService: The start time cannot be zero\"\r\n        );\r\n        require(_endTime > 0, \"ConsultingService: The end time cannot be zero\");\r\n        require(\r\n            bytes(_hostName).length > 0,\r\n            \"ConsultingService: The host name cannot be empty\"\r\n        );\r\n        require(\r\n            _endTime > _startTime,\r\n            \"ConsultingService: end time is before start time\"\r\n        );\r\n\r\n        ConsultingService memory _consultingService =\r\n            ConsultingService({\r\n                id: 0,\r\n                topic: _topic,\r\n                price: _price,\r\n                startTime: _startTime,\r\n                endTime: _endTime,\r\n                hostName: _hostName,\r\n                hostCheckedIn: false,\r\n                status: DeliveredStatus.FOR_SALE,\r\n                host: msg.sender,\r\n                owner: msg.sender\r\n            });\r\n\r\n        consultingServices.push(_consultingService);\r\n\r\n        uint256 tokenId = consultingServices.length - 1;\r\n\r\n        //Mint the token\r\n        _safeMint(msg.sender, tokenId);\r\n\r\n        uint256 _index = tokenId;\r\n        consultingServices[_index].id = _index;\r\n\r\n        _consultingService.id = _index;\r\n        tokens[tokenId] = _consultingService;\r\n    }\r\n\r\n    //Consult total of services\r\n    function totalConsultingServices() public view returns (uint256) {\r\n        return super.totalSupply();\r\n    }\r\n\r\n    //Consult the owner of a token\r\n    function ownerOfToken(uint256 _tokenId) public view returns (address) {\r\n        return super.ownerOf(_tokenId);\r\n    }\r\n\r\n    //Consult the balance of an address\r\n    function balanceOfAddress(address _owner) public view returns (uint256) {\r\n        return super.balanceOf(_owner);\r\n    }\r\n\r\n    //Approve to transfer a token\r\n    function approveTransferToken(address _attendee, uint256 _tokenId)\r\n        public\r\n        onlyOwner(_tokenId)\r\n        validStatus(DeliveredStatus.FOR_SALE, _tokenId)\r\n    {\r\n        require(_attendee != address(0x0));\r\n\r\n        ConsultingService memory consultingService = tokens[_tokenId];\r\n\r\n        super.approve(_attendee, _tokenId);\r\n\r\n        emit Approval(consultingService.owner, _attendee, _tokenId);\r\n    }\r\n\r\n    //Approve to transfer all tokens to an address\r\n    function approvalTransferTokenForAll(address _attendee) public \r\n    {\r\n        require(_attendee != address(0x0));\r\n\r\n        super.setApprovalForAll(_attendee, true);\r\n\r\n        emit ApprovalForAll(msg.sender, _attendee, true);\r\n    }\r\n\r\n    //Validate if a token exists\r\n    function existsToken(uint256 _tokenId) internal view returns (bool) \r\n    {\r\n        return (!(tokens[_tokenId].price == 0));\r\n    }\r\n\r\n    //Buy a consulting service\r\n    function buyConsultingService(uint256 _tokenId)\r\n        public\r\n        payable\r\n        validStatus(DeliveredStatus.FOR_SALE, _tokenId)\r\n    {\r\n        require(existsToken(_tokenId), \"ConsultingService: nonexistant token\");\r\n\r\n        ConsultingService memory consultingService = tokens[_tokenId];\r\n\r\n        uint256 index = consultingService.id;\r\n\r\n        bool _isApprovedOrOwner =\r\n            (super.getApproved(_tokenId) == msg.sender ||\r\n                super.isApprovedForAll(consultingService.owner, msg.sender));\r\n\r\n        require(\r\n            _isApprovedOrOwner,\r\n            \"ConsultingService: the owner does not approve\"\r\n        );\r\n        require(\r\n            msg.value >= consultingService.price,\r\n            \"ConsultingService: it is not enough the value \"\r\n        );\r\n        require(\r\n            msg.sender != address(0),\r\n            \"ConsultingService: the buyer has an address zero\"\r\n        );\r\n\r\n        //Transfer the token\r\n        if (msg.value > consultingService.price) {\r\n            msg.sender.transfer(msg.value - consultingService.price);\r\n        }\r\n\r\n        consultingService.owner.transfer(consultingService.price);\r\n        super.transferFrom(consultingService.owner, msg.sender, _tokenId);\r\n\r\n        emit Transfer(consultingService.owner, msg.sender, _tokenId);\r\n\r\n        tokens[_tokenId].owner = msg.sender;\r\n        tokens[_tokenId].status = DeliveredStatus.SOLD;\r\n\r\n        consultingServices[index].owner = msg.sender;\r\n        consultingServices[index].status = DeliveredStatus.SOLD;\r\n    }\r\n\r\n    //Resell a consulting service\r\n    function resellConsultingService(uint256 _tokenId, uint256 _price)\r\n        public\r\n        payable\r\n        onlyOwner(_tokenId)\r\n        validStatus(DeliveredStatus.SOLD, _tokenId)\r\n    {\r\n        require(msg.sender != address(0));\r\n        require(existsToken(_tokenId), \"ConsultingService: nonexistant token\");\r\n\r\n        require(_price > 0);\r\n        ConsultingService memory consultingService = tokens[_tokenId];\r\n        uint256 index = consultingService.id;\r\n\r\n        tokens[_tokenId].status = DeliveredStatus.FOR_SALE;\r\n        tokens[_tokenId].price = _price;\r\n\r\n        consultingServices[index].status = DeliveredStatus.FOR_SALE;\r\n        consultingServices[index].price = _price;\r\n    }\r\n\r\n    //Release a token after a slot of time (attend the consultant service)\r\n    function releaseStatus(uint256 _tokenId)\r\n        public\r\n        onlyOwner(_tokenId)\r\n        validStatus(DeliveredStatus.SOLD, _tokenId)\r\n    {\r\n        require(existsToken(_tokenId), \"ConsultingService: nonexistant token\");\r\n\r\n        ConsultingService memory consultingService = tokens[_tokenId];\r\n        uint256 index = consultingService.id;\r\n\r\n        require(\r\n            block.timestamp > consultingService.startTime,\r\n            \"ConsultingService: current time is before release time\"\r\n        );\r\n\r\n        if (consultingService.startTime <= block.timestamp) {\r\n            tokens[_tokenId].status = DeliveredStatus.RELEASE;\r\n            tokens[_tokenId].hostCheckedIn = true;\r\n\r\n            consultingServices[index].status = DeliveredStatus.RELEASE;\r\n            consultingServices[index].hostCheckedIn = true;\r\n        }\r\n    }\r\n}\r\n",
  "sourcePath": "L:/Libs/Documents/GitHub/smartContractsLabs/ConsultingServices/contracts/ConsultingToken.sol",
  "compiler": {
    "name": "solc",
    "version": "0.7.1+commit.f4a555be.Emscripten.clang"
  },
  "schemaVersion": "3.3.3",
  "updatedAt": "2021-01-31T17:47:57.466Z",
  "networkType": "ethereum",
  "devdoc": {
    "kind": "dev",
    "methods": {
      "approve(address,uint256)": {
        "details": "See {IERC721-approve}."
      },
      "balanceOf(address)": {
        "details": "See {IERC721-balanceOf}."
      },
      "baseURI()": {
        "details": "Returns the base URI set via {_setBaseURI}. This will be automatically added as a prefix in {tokenURI} to each token's URI, or to the token ID if no specific URI is set for that token ID."
      },
      "getApproved(uint256)": {
        "details": "See {IERC721-getApproved}."
      },
      "isApprovedForAll(address,address)": {
        "details": "See {IERC721-isApprovedForAll}."
      },
      "name()": {
        "details": "See {IERC721Metadata-name}."
      },
      "ownerOf(uint256)": {
        "details": "See {IERC721-ownerOf}."
      },
      "safeTransferFrom(address,address,uint256)": {
        "details": "See {IERC721-safeTransferFrom}."
      },
      "safeTransferFrom(address,address,uint256,bytes)": {
        "details": "See {IERC721-safeTransferFrom}."
      },
      "setApprovalForAll(address,bool)": {
        "details": "See {IERC721-setApprovalForAll}."
      },
      "supportsInterface(bytes4)": {
        "details": "See {IERC165-supportsInterface}. Time complexity O(1), guaranteed to always use less than 30 000 gas."
      },
      "symbol()": {
        "details": "See {IERC721Metadata-symbol}."
      },
      "tokenByIndex(uint256)": {
        "details": "See {IERC721Enumerable-tokenByIndex}."
      },
      "tokenOfOwnerByIndex(address,uint256)": {
        "details": "See {IERC721Enumerable-tokenOfOwnerByIndex}."
      },
      "tokenURI(uint256)": {
        "details": "See {IERC721Metadata-tokenURI}."
      },
      "totalSupply()": {
        "details": "See {IERC721Enumerable-totalSupply}."
      },
      "transferFrom(address,address,uint256)": {
        "details": "See {IERC721-transferFrom}."
      }
    },
    "version": 1
  },
  "userdoc": {
    "kind": "user",
    "methods": {},
    "version": 1
  }
}