{
  "contractName": "Ballot",
  "abi": [
    {
      "inputs": [
        {
          "internalType": "uint256",
          "name": "numProposals",
          "type": "uint256"
        }
      ],
      "stateMutability": "nonpayable",
      "type": "constructor"
    },
    {
      "inputs": [],
      "name": "chairperson",
      "outputs": [
        {
          "internalType": "address",
          "name": "",
          "type": "address"
        }
      ],
      "stateMutability": "view",
      "type": "function",
      "constant": true
    },
    {
      "inputs": [
        {
          "internalType": "uint256",
          "name": "",
          "type": "uint256"
        }
      ],
      "name": "proposals",
      "outputs": [
        {
          "internalType": "uint256",
          "name": "voteCount",
          "type": "uint256"
        }
      ],
      "stateMutability": "view",
      "type": "function",
      "constant": true
    },
    {
      "inputs": [],
      "name": "state",
      "outputs": [
        {
          "internalType": "enum Ballot.Phase",
          "name": "",
          "type": "uint8"
        }
      ],
      "stateMutability": "view",
      "type": "function",
      "constant": true
    },
    {
      "inputs": [
        {
          "internalType": "address",
          "name": "",
          "type": "address"
        }
      ],
      "name": "voters",
      "outputs": [
        {
          "internalType": "uint256",
          "name": "weight",
          "type": "uint256"
        },
        {
          "internalType": "bool",
          "name": "voted",
          "type": "bool"
        },
        {
          "internalType": "uint256",
          "name": "vote",
          "type": "uint256"
        }
      ],
      "stateMutability": "view",
      "type": "function",
      "constant": true
    },
    {
      "inputs": [
        {
          "internalType": "enum Ballot.Phase",
          "name": "x",
          "type": "uint8"
        }
      ],
      "name": "changeState",
      "outputs": [],
      "stateMutability": "nonpayable",
      "type": "function"
    },
    {
      "inputs": [
        {
          "internalType": "address",
          "name": "voter",
          "type": "address"
        }
      ],
      "name": "register",
      "outputs": [],
      "stateMutability": "nonpayable",
      "type": "function"
    },
    {
      "inputs": [
        {
          "internalType": "uint256",
          "name": "toProposal",
          "type": "uint256"
        }
      ],
      "name": "vote",
      "outputs": [],
      "stateMutability": "nonpayable",
      "type": "function"
    },
    {
      "inputs": [],
      "name": "reqWinner",
      "outputs": [
        {
          "internalType": "uint256",
          "name": "",
          "type": "uint256"
        }
      ],
      "stateMutability": "view",
      "type": "function",
      "constant": true
    }
  ],
  "bytecode": "0x608060405260038060006101000a81548160ff0219169083600381111561002257fe5b021790555034801561003357600080fd5b506040516109f53803806109f58339818101604052602081101561005657600080fd5b8101908080519060200190929190505050336000806101000a81548173ffffffffffffffffffffffffffffffffffffffff021916908373ffffffffffffffffffffffffffffffffffffffff1602179055506002600160008060009054906101000a900473ffffffffffffffffffffffffffffffffffffffff1673ffffffffffffffffffffffffffffffffffffffff1673ffffffffffffffffffffffffffffffffffffffff1681526020019081526020016000206000018190555060005b8181101561016b57600260405180602001604052806000815250908060018154018082558091505060019003906000526020600020016000909190919091506000820151816000015550508080600101915050610113565b506001600360006101000a81548160ff0219169083600381111561018b57fe5b021790555050610855806101a06000396000f3fe608060405234801561001057600080fd5b50600436106100885760003560e01c80634420e4861161005b5780634420e48614610162578063508b30c9146101a6578063a3ec138d146101c4578063c19d93fb1461022c57610088565b80630121b93f1461008d578063013cf08b146100bb578063268f1153146100fd5780632e4176cf1461012e575b600080fd5b6100b9600480360360208110156100a357600080fd5b8101908080359060200190929190505050610255565b005b6100e7600480360360208110156100d157600080fd5b8101908080359060200190929190505050610403565b6040518082815260200191505060405180910390f35b61012c6004803603602081101561011357600080fd5b81019080803560ff16906020019092919050505061042a565b005b610136610542565b604051808273ffffffffffffffffffffffffffffffffffffffff16815260200191505060405180910390f35b6101a46004803603602081101561017857600080fd5b81019080803573ffffffffffffffffffffffffffffffffffffffff169060200190929190505050610566565b005b6101ae610705565b6040518082815260200191505060405180910390f35b610206600480360360208110156101da57600080fd5b81019080803573ffffffffffffffffffffffffffffffffffffffff1690602001909291905050506107b2565b604051808481526020018315158152602001828152602001935050505060405180910390f35b6102346107e9565b6040518082600381111561024457fe5b815260200191505060405180910390f35b600280600381111561026357fe5b600360009054906101000a900460ff16600381111561027e57fe5b1461028857600080fd5b6102906107fc565b600160003373ffffffffffffffffffffffffffffffffffffffff1673ffffffffffffffffffffffffffffffffffffffff168152602001908152602001600020604051806060016040529081600082015481526020016001820160009054906101000a900460ff16151515158152602001600282015481525050905060001515816020015115151461032057600080fd5b600280549050831061033157600080fd5b60018060003373ffffffffffffffffffffffffffffffffffffffff1673ffffffffffffffffffffffffffffffffffffffff16815260200190815260200160002060010160006101000a81548160ff02191690831515021790555082600160003373ffffffffffffffffffffffffffffffffffffffff1673ffffffffffffffffffffffffffffffffffffffff168152602001908152602001600020600201819055508060000151600284815481106103e457fe5b9060005260206000200160000160008282540192505081905550505050565b6002818154811061041057fe5b906000526020600020016000915090508060000154905081565b60008054906101000a900473ffffffffffffffffffffffffffffffffffffffff1673ffffffffffffffffffffffffffffffffffffffff163373ffffffffffffffffffffffffffffffffffffffff16146104eb576040517f08c379a000000000000000000000000000000000000000000000000000000000815260040180806020018281038252600c8152602001807f216368616972706572736f6e000000000000000000000000000000000000000081525060200191505060405180910390fd5b600360009054906101000a900460ff16600381111561050657fe5b81600381111561051257fe5b1161051c57600080fd5b80600360006101000a81548160ff0219169083600381111561053a57fe5b021790555050565b60008054906101000a900473ffffffffffffffffffffffffffffffffffffffff1681565b600180600381111561057457fe5b600360009054906101000a900460ff16600381111561058f57fe5b1461059957600080fd5b60008054906101000a900473ffffffffffffffffffffffffffffffffffffffff1673ffffffffffffffffffffffffffffffffffffffff163373ffffffffffffffffffffffffffffffffffffffff161461065a576040517f08c379a000000000000000000000000000000000000000000000000000000000815260040180806020018281038252600c8152602001807f216368616972706572736f6e000000000000000000000000000000000000000081525060200191505060405180910390fd5b60001515600160008473ffffffffffffffffffffffffffffffffffffffff1673ffffffffffffffffffffffffffffffffffffffff16815260200190815260200160002060010160009054906101000a900460ff161515146106ba57600080fd5b60018060008473ffffffffffffffffffffffffffffffffffffffff1673ffffffffffffffffffffffffffffffffffffffff168152602001908152602001600020600001819055505050565b6000600380600381111561071557fe5b600360009054906101000a900460ff16600381111561073057fe5b1461073a57600080fd5b60008060005b60028054905081101561079d57826002828154811061075b57fe5b90600052602060002001600001541115610790576002818154811061077c57fe5b906000526020600020016000015492508091505b8080600101915050610740565b5060038210156107a957fe5b80935050505090565b60016020528060005260406000206000915090508060000154908060010160009054906101000a900460ff16908060020154905083565b600360009054906101000a900460ff1681565b60405180606001604052806000815260200160001515815260200160008152509056fea2646970667358221220f5247b4709a99556fb6ac5203b4ccea682a6fafccabd103e80dac4f874435efb64736f6c63430007010033",
  "immutableReferences": {},
  "source": "// SPDX-License-Identifier: MIT\r\n\r\npragma solidity ^0.7.1;\r\n\r\ncontract Ballot {\r\n    \r\n    struct Voter {\r\n      uint weight;\r\n      bool voted;\r\n      uint vote;\r\n    }\r\n    \r\n    struct Proposal{\r\n        uint voteCount;\r\n    }\r\n    \r\n    address public chairperson; // Ethereum address is 20 bytes long = 0x5B38Da6a701c568545dCfcB03FcB875f56beddC4\r\n    mapping(address => Voter) public voters;\r\n    // {\r\n    //     \"0xabcd.1234\" => {weight,voted,vote},\r\n    //     \"0xab12..def2\" => {weight, voted,vote}\r\n    // }\r\n    // syntax for mapping and it is used to represent JSON structure in solidity\r\n    // mapping( keyType => valueType ) public variable_name ;\r\n    Proposal[] public proposals; \r\n    \r\n    enum Phase {Init, Regs, Vote, Done}\r\n    // it can take only 0,1,2,3 values:\r\n    \r\n    Phase public state = Phase.Done;\r\n    \r\n    constructor (uint numProposals) {\r\n        chairperson = msg.sender;\r\n        voters[chairperson].weight = 2;\r\n        for(uint prop = 0 ; prop < numProposals ; prop++){\r\n            // Proposal memory p;\r\n            // p.voteCount = 0;\r\n            // OR\r\n            // Proposal memory p = Proposal(0);\r\n            // proposals.push(p);\r\n            // OR\r\n            proposals.push(Proposal(0));\r\n        }\r\n        state = Phase.Regs;\r\n    }\r\n    \r\n    modifier onlyChair() {\r\n        require(msg.sender  == chairperson,\"!chairperson\");\r\n        _;\r\n    }\r\n    \r\n    modifier validPhase(Phase reqPhase) {\r\n        require(state == reqPhase);\r\n        _;\r\n    }\r\n    \r\n    function changeState(Phase x) public onlyChair {\r\n        require(x > state);\r\n        state = x;\r\n    }\r\n    \r\n    function register(address voter) public validPhase(Phase.Regs) onlyChair {\r\n        require(voters[voter].voted == false);\r\n        voters[voter].weight = 1;\r\n    }\r\n    \r\n    function vote(uint toProposal) public validPhase(Phase.Vote) {\r\n        Voter memory sender = voters[msg.sender];\r\n        \r\n        require(sender.voted == false);\r\n        \r\n        require(toProposal < proposals.length);\r\n        \r\n        voters[msg.sender].voted = true;\r\n        voters[msg.sender].vote = toProposal;\r\n        proposals[toProposal].voteCount += sender.weight;\r\n    }\r\n    \r\n    function reqWinner() public validPhase(Phase.Done) view returns(uint) {\r\n        uint winningVoteCount = 0;\r\n        uint winningProposal = 0;\r\n        for(uint prop = 0 ; prop < proposals.length ; prop++){\r\n            if(proposals[prop].voteCount > winningVoteCount) {\r\n                winningVoteCount = proposals[prop].voteCount;\r\n                winningProposal = prop;\r\n            }\r\n        }\r\n        assert(winningVoteCount >= 3);\r\n        return winningProposal;\r\n    }\r\n}\r\n\r\n/*\r\nTruffle Develop started at http://127.0.0.1:9545/\r\n\r\nAccounts:\r\n(0) 0x2f70ea70106d69937001874832520a8df93ee303 -> chairPerson\r\n(1) 0x3c735fb21647def65e25dee6d9ed7da92a22de0b -> voter1\r\n(2) 0x1c7d9b8ce21de77fe7db2d9efe4f3b5a9aba6ec0 -> voter2\r\n(3) 0xfc2579d08a85ae54a06b85d7bf36ae09832cebf6 -> voter3\r\n(4) 0xa3e3d0565b19af992b316078f1b5ef5e698c922a -> voter4\r\n(5) 0x6732441922435e9c2b9a61afd2148f8cd86a7bde -> voter5\r\n(6) 0x5d1d6d9c1950396c9fe55adaf4bc41dae5598d64\r\n(7) 0x2fe8dbafefc412c748068ddb795610b5d9b7bbc6\r\n(8) 0xae8385bde6e265bb42aed5b3586eb395562b79dd\r\n(9) 0x00616bd512960d330452be84e596c7101aaf417e\r\n\r\nPrivate Keys:\r\n(0) 4500acd6a46064e40c8d9ede1c638e8af325a3b48209da76125481b5d0afd492\r\n(1) ed601a76c151dc01fe4665e5c301c820d923bf0f4e017b8ea1109b6663cdc3a4\r\n(2) e272fd26e83f62fb21ae547e2289967f8610f6a53949e92d54a736b0203b2fc2\r\n(3) 8a216674f6d1a8d20965a687b7ab5bafb9dfe71a83263eea56a7b1ed56cdd640\r\n(4) d6ab690d230a333b66b19d74ed85cdabd48c7d5a7a4b1f928c903342177944f6\r\n(5) 16e611487eebbb00088461b0bd0cd7bf3fedf201412e2366dcc587862c7e4089\r\n(6) c6fec41e6c5ef90b76891d464e03345b86918bfb116619c66d1e9a0e60e99c8d\r\n(7) 5a27d6e65029039c4ad41b4de44b83f6801de908ee9c20930fee93e65dc40be4\r\n(8) 82ccc48fffdec97041ade45f5fc6623a2d0bdb458aa8109c8046e1d13f8e5922\r\n(9) 35de83860f5d0e9b1090c91f7ef07e999a557414705ec09ada7fcb8412b00348\r\n\r\nMnemonic: initial twice resource cage pride session uniform fortune pet labor pave gloom\r\n\r\n*/",
  "sourcePath": "L:/Libs/Documents/GitHub/smartContractsLabs/Ballot/contracts/Ballot.sol",
  "compiler": {
    "name": "solc",
    "version": "0.7.1+commit.f4a555be.Emscripten.clang"
  },
  "schemaVersion": "3.3.3",
  "updatedAt": "2021-01-28T21:54:59.603Z",
  "networkType": "ethereum",
  "devdoc": {
    "kind": "dev",
    "methods": {},
    "version": 1
  },
  "userdoc": {
    "kind": "user",
    "methods": {},
    "version": 1
  }
}